:040000005BEF00F0C2
:0C000800FACF2AF0FBCF2BF020EF08F01D
:10001800D8CF01F0E8CF02F0E0CF03F0FACF04F038
:10002800FBCF05F0E9CF06F0EACF07F0E1CF08F003
:10003800E2CF09F0D9CF0AF0DACF0BF0F3CF0CF00A
:10004800F4CF0DF0F6CF0EF0F7CF0FF0F8CF10F099
:10005800F5CF11F0F2A408D0F29400010001B62BFC
:10006800FB0ED76E1E0ED66E11C0F5FF10C0F8FF3E
:100078000FC0F7FF0EC0F6FF0DC0F4FF0CC0F3FF72
:100088000BC0DAFF0AC0D9FF09C0E2FF08C0E1FFD0
:1000980007C0EAFF06C0E9FF05C0FBFF04C0FAFF7E
:1000A80003C0E0FF02C0E8FF01C0D8FF100035EF31
:1000B8000AF064EC0AF0D00E00018D6FCA0EE82E2B
:1000C800FED78D2FFCD79DEC09F05EEC07F0C1EC54
:1000D80007F057EC0AF0F3EC09F014EC0AF0000111
:1000E8008D6F000E00010001B66F00018D510001F7
:1000F8008D6F000E00010001966F00018D51000107
:100108008D6F000E00010001976F00018D510001F5
:100118008D6F000E00010001986F00018D510001E4
:100128008D6F000E00010001946F00018D510001D8
:100138008D6F000E00010001956F00018D51CBEC11
:1001480009F0010E00010001B66520D100018D6F94
:10015800000E00010001B66F00018D51D89080306B
:10016800070B00010001996F8040E8423F0B080B24
:1001780000010001991100010001996F99C09EF0DA
:1001880000018D6F010E00010001A66F00018D5165
:10019800030E000100019A6F040E00019B6F000E10
:1001A80000019C6F000E00019D6F00018D6F000E15
:1001B80000010001A76F00018D5120EE9AF010EEAA
:1001C80060F00E0EDECFE6FFE82EFCD7D0EC08F08C
:1001D80000010001966717D0000100019705D8A417
:1001E80012D08B948B9C00018D6F000E00010001D2
:1001F800976F00018D5100018D6F000E0001000105
:10020800956F00018D51000100019651020AD8A492
:1002180017D0000100019705D8A412D08B848B9CBD
:1002280000018D6F000E00010001976F00018D51D4
:1002380000018D6F010E00010001956F00018D51C5
:10024800000100019605D8A417D000010001970508
:10025800D8A412D08B948B8C00018D6F000E0001F6
:100268000001976F00018D5100018D6F010E000193
:100278000001956F00018D51000100019405D8A47B
:1002880085D01AEC09F000010001996F0001000106
:10029800995100010001985DD8B00AD08B948B8CDD
:1002A80000018D6F010E00010001956F00018D5155
:1002B80000010001985100010001995DD8B00AD0F1
:1002C8008B848B9C00018D6F010E00010001956FDE
:1002D80000018D5100010001995100018D6F8E6B55
:1002E800FF0E00018F6FFF0E906F00010001985103
:1002F8000001916F926B00018F510001912700015D
:1003080090510001922300019251800A0001936FDD
:1003180000018D510001915D00018E51800A00019C
:100328009359D8B033D000010001985100018D6F66
:100338008E6B010E00018D27000E8E230001000137
:10034800995100018F6F906B00019051800A000154
:10035800916F00018D5100018F5D00018E51800A5F
:1003680000019159D8B012D08B948B9C00018D6FED
:10037800000E00010001956F00018D5100018D6F85
:10038800000E00010001946F00018D51020102016D
:100398008F6742D1010101018E673ED1F0EC06F072
:1003A80020EEA8F00E0EEECFDEFFE82EFCD70001FF
:1003B8000001A951040A050ED8B4A819AA11AB1155
:1003C800D8A43ED000010001B551400AD8A438D0C5
:1003D80000018D6F010E000100019E6F00018D511B
:1003E80000018D6F000E000100019F6F00018D510B
:1003F80000018D6F020E00010001A66F00018D51F2
:10040800050E000100019A6F040E00019B6F000E9B
:1004180000019C6F000E00019D6F00018D6F000EA2
:1004280000010001A76F00018D5120EE9AF010EE37
:1004380060F00E0EDECFE6FFE82EFCD7D0EC08F019
:1004480000010001A805040ED8B4A919AA11AB111E
:10045800D8A44FD000010001B551400AD8A449D012
:100468001AEC09F0000100019E6F000100019505DA
:10047800D8A404D000018D6F010E03D000018D6F48
:10048800000E00010001996F00018D5182B207D062
:10049800000100019951020F00010001996F99C0F4
:1004A8009FF000018D6F020E00010001A66F000190
:1004B8008D51010E000100019A6F040E00019B6F1F
:1004C800000E00019C6F000E00019D6F00018D6FF2
:1004D800000E00010001A76F00018D5120EE9AF077
:1004E80010EE60F00E0EDECFE6FFE82EFCD7D0EC63
:1004F80008F000010001A951040AA811AA11AB11C2
:10050800D8A41DD000010001B405D8A418D0650EE8
:1005180000010001AC5DD8B012D0ACC098F0000169
:100528008D6F010E00010001946F00018D510001D3
:100538008D6F000E00010001976F00018D510001C1
:100548000001A951040A020ED8B4A819AA11AB11C6
:10055800D8A427D000010001B405D8A422D00001F6
:100568000001AC51D8B40BD000010001AC51020A13
:10057800D8B405D000010001AC05D8A412D0ACC095
:1005880096F000018D6F010E00010001976F0001C8
:100598008D5100018D6F000E00010001946F000164
:1005A8008D5100010001A951040A040ED8B4A819FC
:1005B800AA11AB11D8A430D000010001B451020A2D
:1005C800D8A42AD000010001ACA102D08C8001D0AF
:1005D8008C9000010001ACA302D08C8201D08C92D7
:1005E80000010001ACA502D08C8401D08C940001DC
:1005F8000001ACA702D08C8601D08C9600010001C6
:10060800ADA102D08C8801D08C9800010001ADA367
:1006180002D08C8A01D08C9A010101018F6791D593
:100628000F0120B78ED582EC06F020EE9AF00E0E60
:10063800EECFDEFFE82EFCD79AC06BF09BC06CF0C3
:100648009CC06DF09DC06EF00001000E000100011D
:10065800706F00019E0E000100016F6FA6C071F05F
:10066800A7C072F029EC04F06CD50001000E00015F
:1006780000016A6F0001620E00010001696F00014C
:10068800000166674DD069C0D9FF6AC0DAFFDF5044
:100698000001676F0001D89067330001D890673375
:1006A8000001D890673160C0D9FF61C0DAFFDF6E02
:1006B800000120EE01F000016951D92600016A51BC
:1006C800DA22DF500001676F050E0001686F000134
:1006D800D89067370001682FFAD760C0D9FF61C08A
:1006E800DAFF00016751DF1200010001604B612B46
:1006F80069C0D9FF6AC0DAFFDF500001676F050ED5
:100708000001686F0001D89067370001682FFAD799
:100718000001675160C0D9FF61C0DAFFDF6E1200C7
:10072800000120EE02F000016951D92600016A514A
:10073800DA22DF500001676F050E0001686F0001C3
:10074800D89067330001682FFAD70001675160C05D
:10075800D9FF61C0DAFFDF6E000120EE03F000016F
:100768006951D92600016A51DA22DF500001676F0A
:100778000001D89067370001D89067370001D890FA
:10078800673760C0D9FF61C0DAFF00016751DF1227
:1007980000010001604B612B000120EE02F0000116
:1007A8006951D92600016A51DA22DF500001676FCA
:1007B8000001D89067370001D89067370001D890BA
:1007C8006735E00B60C0D9FF61C0DAFFDF6E60C03B
:1007D800D9FF61C0DAFF000EDB86000120EE02F0CF
:1007E80000016951D92600016A51DA22DF5000015F
:1007F800676F030E0001671760C0D9FF61C0DAFF99
:1008080000016751DF1200010001604B612B0001FC
:1008180020EE01F000016951D92600016A51DA225F
:1008280060C0E1FF61C0E2FFDFCFE7FF0001000128
:10083800604B612B69C0D9FF6AC0DAFF60C0E1FF75
:1008480061C0E2FFDFCFE7FF12000F010F0E0001CA
:100858000001756F0F01200E00010001746F0F0178
:100868000F0E00010001776F0F01100E000100014B
:10087800766F0F010F0E00010001796F0F01000E56
:1008880000010001786F0001736F000E0001000184
:100898008A6F00017351010E000100018A6501D0C1
:1008A8001200000100018A51020D0001740EF324A8
:1008B800D96E0001000EF420DA6E0001DECF8BF055
:1008C8000001DDCF8CF0000100018CC088F0000130
:1008D80000018BC087F08BC0D9FF8CC0DAFFDF50D6
:1008E8000001736F000173B793D08BC0D9FF8CC020
:1008F800DAFFFC0EDF1672C073F0030E00017317E7
:100908008BC0D9FF8CC0DAFF00017351DF120001E0
:10091800000172AD08D000010001715140090001C9
:100928000001896F02D071C089F0000120EE05F046
:1009380000018B51D92600018C51DA22000189C0AF
:10094800DFFF0001000172AB04D00001736F010EDC
:1009580003D00001736F000E00010001896F0001D0
:100968007351010E000100018B2500010001606F29
:10097800000E000100018C210001616F6BC062F064
:100988006CC063F06DC064F06EC065F089C066F03D
:1009980039EC03F0060E000100018B27000E000160
:1009A8008C230001736F000E00010001866F0001A7
:1009B800735115D06FC0D9FF70C0DAFF8BC0E1FF4B
:1009C8008CC0E2FFDFCFE7FF000100016F4B702B07
:1009D800000100018B4B8C2B00010001862B0001CC
:1009E8000001715100010001865DD8A0E3D787C0DE
:1009F800D9FF88C0DAFFDF500001736F000173B5BB
:100A0800120087C0D9FF88C0DAFF000EDB8612000B
:100A1800000100018A2B010E000100018A6541D7FF
:100A2800120015C01AF014C019F016664AD012C088
:100A3800D9FF13C0DAFFDF50176ED8901736D89059
:100A48001736D890173419C0D9FF1AC0DAFFDF6EED
:100A580020EE01F01950D9261A50DA2212C0E1FF0F
:100A680013C0E2FFE750176E050E186ED8901732C4
:100A7800182EFCD71750DF6E124A132A12C0D9FF5E
:100A880013C0DAFFDF50176E050E186ED8901732B4
:100A9800182EFCD719C0D9FF1AC0DAFF1750DF1279
:100AA80020EE02F01950D9261A50DA22000EDF6E15
:100AB80020EE03F01950D9261A50DA22000EDF6E04
:100AC800120020EE02F01950D9261A50DA2212C06C
:100AD800E1FF13C0E2FFE750176E050E186ED890BD
:100AE8001736182EFCD71750DF6E20EE03F019507A
:100AF800D9261A50DA2212C0E1FF13C0E2FFE750EC
:100B0800176ED8901732D8901732D8901730DF6EFA
:100B1800124A132A12C0D9FF13C0DAFFDF50176E2A
:100B2800030E171620EE02F01950D9261A50DA22B1
:100B38001750DF1212C0D9FF13C0DAFFDF50176E4B
:100B4800D8901732D8901732D89017321C0E171633
:100B580020EE02F01950D9261A50DA221750DF1267
:100B6800124A132A12C0D9FF13C0DAFF10EE01F09F
:100B78001950E1261A50E222DFCFE7FF124A132A62
:100B880012C0D9FF13C0DAFF19C0E1FF1AC0E2FF93
:100B9800DFCFE7FF1200236E000E466E235060AED3
:100BA80013D0779071AE07D021C0D9FF22C0DAFFE9
:100BB800000EDB86719E60A002D0468001D0469070
:100BC8000F0E286E600E21D00F0130AF1200779201
:100BD80071AC07D021C0D9FF22C0DAFF000EDB8636
:100BE800719C0F010F013051070B466E020E465CD7
:100BF800D8B006D021C0D9FF22C0DAFF000EDB8EA4
:100C08000F010F0E286E0F01300E276E28C025F039
:100C180027C024F021C0D9FF22C0DAFF000EDF6E02
:100C280020EE05F02750D9262850DA22DF50296E09
:100C380029500F0B1FC0D9FF20C0DAFFDF6E29AC87
:100C480006D021C0D9FF22C0DAFF000EDB8C20EECF
:100C580002F02750D9262850DA22DF50296E29A61B
:100C680009D021C0D9FF22C0DAFF000EDB8A236E2B
:100C7800010E02D0236E000E296E2350010E272488
:100C8800126E000E2820136E1CC015F01BC014F045
:100C980029C016F015EC05F0060E2726000E2822AE
:100CA8001FC0D9FF20C0DAFFDF50296E236E000E67
:100CB800266E23500FD027C0D9FF28C0DAFF1DC0E9
:100CC800E1FF1EC0E2FFDFCFE7FF274A282A1D4ABF
:100CD8001E2A262A2950265CD8A0EDD777AE07D041
:100CE80021C0D9FF22C0DAFF000EDB88779E24C01E
:100CF800D9FF25C0DAFF7F0EDF16120001010101BE
:100D08008F6751D0F29E010101018C510E0D000E2A
:100D180000016E6F010E6F6FF35000016E27F450E3
:100D280000016F236EC0D9FF6FC0DAFF10EE70F0BC
:100D38000E0EDECFE6FFE82EFCD700016E6F000E28
:100D4800010101018E6F00016E51010101018C2B1F
:100D5800010101018C510A0AD8A408D000016E6F64
:100D6800000E010101018C6F00016E5101010101AA
:100D78008C51010121EE8DF0DF6208D000016E6F09
:100D8800010E010101018F6F00016E51F28E20EEFC
:100D98007DF000EE6DF00E0EDDCFEDFFE82EFCD7F6
:100DA800E92AEA221200000E00010001706F000E0D
:100DB8000001716F000E0001726F000E0001736F69
:100DC80020EE7DF000EE6DF00E0EDDCFEDFFE82E8B
:100DD800FCD7E92AEA221200020102018F6751D0EA
:100DE800F29E020102018C510E0D000E00016E6F81
:100DF800020E6F6FF35000016E27F45000016F234D
:100E08006EC0D9FF6FC0DAFF10EE70F00E0EDECFA5
:100E1800E6FFE82EFCD700016E6F000E020102010A
:100E28008E6F00016E51020102018C2B020102013A
:100E38008C510A0AD8A408D000016E6F000E020176
:100E480002018C6F00016E51020102018C510201F6
:100E580022EE8DF0DF6208D000016E6F010E0201F4
:100E680002018F6F00016E51F28E20EE7DF000EED0
:100E78006DF00E0EDDCFEDFFE82EFCD7E92AEA2251
:100E88001200000E00010001706F000E0001716F6A
:100E9800000E0001726F000E0001736F20EE7DF0EE
:100EA80000EE6DF00E0EDDCFEDFFE82EFCD7E92A3F
:100EB800EA221200800E47EC0AF0010E0E010E0124
:100EC800436F700E0E010E01446F000E0E010E01ED
:100ED800456F300E706E729E729C000E606E000E32
:100EE8000F010F01306F000E0E010E01E06F000EB2
:100EF8000E010E01E16F000E0E010E01E46F000EEF
:100F08000E010E01E56F000E0E010E01E86F000ED6
:100F18000E010E01E96F000E0E010E01EC6F000EBE
:100F28000E010E01ED6F000E0E010E01F06F000EA6
:100F38000E010E01F16F000E0E010E01F46F000E8E
:100F48000E010E01F56F000E0E010E01F86F000E76
:100F58000E010E01F96F0E010E01F997000E0E0138
:100F68000E01FC6F000E0E010E01FD6F0E010E0149
:100F7800FD97000E47EC0AF01200FE0E0E010E015E
:100F8800F86F000E0E010E01F96FFE0E0E010E0134
:100F9800FC6F000E0E010E01FD6F040E0001000132
:100FA800636F000E0001626F000162C060F0000113
:100FB80063C061F00001D890613360330001D890BC
:100FC800613360330001D8906133603300016051B0
:100FD8000E010E01E06F000100016239E846E00BE6
:100FE8000E010E01E16F000E0E010E01E46F000EFE
:100FF8000E010E01E56F000E0E010E01E86F000EE6
:101008000E010E01E96F000E0E010E01EC6F000ECD
:101018000E010E01ED6F000E0E010E01F06F000EB5
:101028000E010E01F16F000E0E010E01F46F000E9D
:101038000E010E01F56F1200E9CF2CF0EACF2DF06A
:10104800E1CF2EF0E2CF2FF0D9CF30F0DACF31F068
:10105800F3CF32F0F4CF33F0F6CF34F0F7CF35F0EA
:10106800F8CF36F0F5CF37F0000E77B0010E77B233
:10107800010EE8A01FD0000E1C6E380E1B6E000E6D
:101088001E6E3C0E1D6E000E206E440E1F6E000E6E
:10109800226E450E216ECFEC05F020EE38F010EEF2
:1010A80012F00E0EDECFE6FFE82EFCD75EEC09F05C
:1010B8007790779237C0F5FF36C0F8FF35C0F7FF55
:1010C80034C0F6FF33C0F4FF32C0F3FF31C0DAFF9B
:1010D80030C0D9FF2FC0E2FF2EC0E1FF2DC0EAFFCC
:1010E8002CC0E9FF2BC0FBFF2AC0FAFF1100000E3D
:1010F80000010001666F000E0001656F000100012C
:1011080063516211D8B443D00001646F010E00012D
:101118000001676F0001645109D00001000100015E
:10112800D8906237633700010001672B0001000186
:1011380063AFF3D7000100010001D8906537663727
:1011480000010001625100010001605D0001000121
:101158006351000100016159D8A00FD000010001BE
:10116800625100010001605F00010001635100014C
:101178000001615B000100016581000100010001BF
:10118800D8906333623300010001672FD3D765C05D
:1011980060F066C061F01200010101018E67120063
:1011A800F29E20EE60F0010101018D510E0D000E3E
:1011B80000016E6F010E6F6FF35000016E27F4503F
:1011C80000016F236EC0E1FF6FC0E2FF0E0EDECF9D
:1011D800E6FFE82EFCD700016E6F000E0101010149
:1011E8008F6F00016E51010101018D2B0101010179
:1011F8008D510A0AD8A408D000016E6F000E0101B3
:1012080001018D6F00016E51010101018C51010135
:1012180021EE8DF0DF6208D000016E6F010E010132
:1012280001018E6F00016E51F28E1200C282C2B2AD
:10123800FED70001C4CF68F000010001696B00010E
:101248000001685100010001696F0001686B00012D
:1012580000016851C31000010001686F000100011E
:1012680069510001696F68C060F069C061F0000EE3
:1012780000010001636F220E0001626F7BEC08F031
:10128800000160C068F0000161C069F0650E0001EE
:101298000001685D000E00016959D8A007D0000E52
:1012A80000010001696F640E0001686F0001000110
:1012B80068511200020102018E67120020EE12F03E
:1012C800020102018D510E0D000E206E020E216EDC
:1012D800F3502026F450212220C0E1FF21C0E2FF74
:1012E8000E0EDECFE6FFE82EFCD7206E000E0201C0
:1012F80002018F6F2050020102018D2B02010201B1
:101308008D510A0AD8A406D0206E000E02010201EF
:101318008D6F2050020102018C51020122EE8DF0E6
:10132800DF621200206E010E020102018E6F205052
:101338001200C294C296C298C29AC29CC280000E81
:10134800C16EC150CF0B2009C16EC08EC086C08847
:10135800C08AC050F80B0609C06E010E0F010F01BC
:101368005D6F000E0F010F015C6F3F0E926EF80E5D
:10137800936E8A841A0E946E8B948B9C000E956ED5
:101388008C888C8A000E966E000E8D6E1200D08EA0
:10139800200EF26EF80EF16E000EF06E000E9E6ECC
:1013A800000EA16E000EA46E000EB76E000E776ED2
:1013B800200E9D6E000EA06E200EA36E000EB66E5F
:1013C800030E766E000E9F6E000EA26E000EA56EC6
:1013D800000EB86E030E786EF28EF28C12000001C9
:1013E800606F010E010101018F6F00016051000162
:1013F800606F000E010101018E6F00016051000154
:10140800606F000E010101018C6F00016051000145
:10141800606F000E010101018D6F00016051120023
:101428000001606F010E020102018F6F000160511F
:101438000001606F000E020102018E6F0001605111
:101448000001606F000E020102018C6F0001605103
:101458000001606F000E020102018D6F00016051F2
:10146800120002EE00F0900EEE6AE806FDE101EED1
:1014780000F0900EEE6AE806FDE10001B66B466AE0
:1014880000015DEF00F0E8CF60F01F0E6F1600015D
:10149800000160516F126E50E00B000100016019ED
:1014A800D8B41200F8D7D59CD59AD596D550F80B54
:1014B8000609D56EFB0ED76E1E0ED66ED58E12009F
:0E14C800D38ED398D39AD39CFC0ED316120069
:020000040020DA
:08000000FFFFFFFFFFFFFFFF00
:020000040030CA
:0E00000014137E7CFF8991FF0FC00FE00F40AC
:00000001FF
