:040000005BEF00F0C2
:0C000800FACF2AF0FBCF2BF067EF0DF0D1
:10001800D8CF01F0E8CF02F0E0CF03F0FACF04F038
:10002800FBCF05F0E9CF06F0EACF07F0E1CF08F003
:10003800E2CF09F0D9CF0AF0DACF0BF0F3CF0CF00A
:10004800F4CF0DF0F6CF0EF0F7CF0FF0F8CF10F099
:10005800F5CF11F0F2A408D0F29400010001C42BEE
:10006800FB0ED76E1E0ED66E11C0F5FF10C0F8FF3E
:100078000FC0F7FF0EC0F6FF0DC0F4FF0CC0F3FF72
:100088000BC0DAFF0AC0D9FF09C0E2FF08C0E1FFD0
:1000980007C0EAFF06C0E9FF05C0FBFF04C0FAFF7E
:1000A80003C0E0FF02C0E8FF01C0D8FF1000FEEF68
:1000B8000FF05BEC10F0D00E00018F6FCA0EE82E27
:1000C800FED78F2FFCD7D00E00018F6FCA0EE82EF7
:1000D800FED78F2FFCD7D00E00018F6FCA0EE82EE7
:1000E800FED78F2FFCD7D00E00018F6FCA0EE82ED7
:1000F800FED78F2FFCD71EEC0FF0A5EC0CF008EC08
:100108000DF032EC10F0BCEC0FF0DDEC0FF000015C
:100118008F6F000E00010001C46F00018F510001B4
:100128008F6F000E00010001986F00018F510001D0
:100138008F6F000E00010001996F00018F510001BF
:100148008F6F000E000100019A6F00018F510001AE
:100158008F6F000E00010001966F00018F510001A2
:100168008F6F000E00010001976F00018F514CEC5A
:100178000FF0010E00010001C46523D104000EEC4C
:1001880004F000018F6F000E00010001C46F000130
:100198008F51D8908030070B000100019B6F804081
:1001A800E8423F0B080B000100019B110001000110
:1001B8009B6F9BC0AEF000018F6F010E0001000124
:1001C800B66F00018F51030E00010001AA6F040EE3
:1001D8000001AB6F000E0001AC6F000E0001AD6FA7
:1001E80000018F6F000E00010001B76F00018F51F1
:1001F80020EEAAF010EE60F00E0EDECFE6FFE82E3D
:10020800FCD717EC0EF000010001986717D0000129
:1002180000019905D8A412D08B948B9C00018F6F94
:10022800000E00010001996F00018F5100018F6FCE
:10023800000E00010001976F00018F5100010001BD
:100248009851020AD8A417D0000100019905D8A432
:1002580012D08B848B9C00018F6F000E000100016F
:10026800996F00018F5100018F6F010E000100018D
:10027800976F00018F51000100019805D8A417D08D
:10028800000100019905D8A412D08B948B8C000131
:100298008F6F000E00010001996F00018F5100015E
:1002A8008F6F010E00010001976F00018F5100014F
:1002B80000019605D8A485D061EC0EF0000100017C
:1002C8009B6F000100019B51000100019A5DD8B0AD
:1002D8000AD08B948B8C00018F6F010E00010001F6
:1002E800976F00018F51000100019A510001000130
:1002F8009B5DD8B00AD08B848B9C00018F6F010E58
:1003080000010001976F00018F51000100019B510E
:1003180000018F6F906BFF0E0001916FFF0E926FBF
:10032800000100019A510001936F946B00019151F3
:100338000001932700019251000194230001945178
:10034800800A0001956F00018F510001935D000143
:100358009051800A00019559D8B033D000010001AE
:100368009A5100018F6F906B010E00018F27000ECC
:100378009023000100019B510001916F926B0001D5
:100388009251800A0001936F00018F510001915D25
:1003980000019051800A00019359D8B012D08B9473
:1003A8008B9C00018F6F000E00010001976F000108
:1003B8008F5100018F6F000E00010001966F000140
:1003C8008F51020102018F67FCD1010101018E6783
:1003D800F8D137EC0CF020EE9CF00E0EEECFDEFFDD
:1003E800E82EFCD7000100019D51040A050ED8B47F
:1003F8009C199E119F11D8A43ED000010001A9515B
:10040800400AD8A438D000018F6F010E0001000106
:10041800AE6F00018F5100018F6F010E00010001C6
:10042800AF6F00018F5100018F6F020E00010001B4
:10043800B66F00018F51050E00010001AA6F040E6E
:100448000001AB6F000E0001AC6F000E0001AD6F34
:1004580000018F6F000E00010001B76F00018F517E
:1004680020EEAAF010EE60F00E0EDECFE6FFE82ECA
:10047800FCD717EC0EF0000100019D51040A060E8E
:10048800D8B49C199E119F11D8A45AD0000100011C
:10049800A951400AD8A454D0B8C0AEF00001B9C0E0
:1004A8008FF08FC090F00001916B00019051000116
:1004B8000001AF6FBAC0B0F00001BBC08FF08FC0B1
:1004C80090F00001916B0001905100010001B16FA3
:1004D800BCC0B2F00001BDC08FF08FC090F0000129
:1004E800916B0001905100010001B36FC2C0B4F0DC
:1004F80000018F6F070E00010001B66F00018F51D8
:10050800060E00010001AA6F040E0001AB6F000E79
:100518000001AC6F000E0001AD6F00018F6F000E7F
:1005280000010001B76F00018F5120EEAAF010EE14
:1005380060F00E0EDECFE6FFE82EFCD717EC0EF0CB
:10054800000100019D51040A070ED8B49C199E11A0
:100558009F11D8A44AD000010001A951400AD8A48B
:1005680044D0BEC0AEF00001BFC08FF08FC090F085
:100578000001916B0001905100010001AF6FC0C0F4
:10058800B0F00001C1C08FF08FC090F00001916BF6
:100598000001905100010001B16F00018F6F040E3E
:1005A80000010001B66F00018F51070E0001000124
:1005B800AA6F040E0001AB6F000E0001AC6F000EB5
:1005C8000001AD6F00018F6F000E00010001B76FD1
:1005D80000018F5120EEAAF010EE60F00E0EDECF73
:1005E800E6FFE82EFCD717EC0EF0000100019C0591
:1005F800040ED8B49D199E119F11D8A44FD00001A4
:100608000001A951400AD8A449D061EC0EF00001BC
:100618000001AE6F000100019705D8A404D00001C5
:100628008F6F010E03D000018F6F000E00010001D3
:100638009B6F00018F5182B207D0000100019B51CE
:10064800020F000100019B6F9BC0AFF000018F6F8C
:10065800020E00010001B66F00018F51010E00016A
:100668000001AA6F040E0001AB6F000E0001AC6F11
:10067800000E0001AD6F00018F6F000E0001000138
:10068800B76F00018F5120EEAAF010EE60F00E0E49
:10069800DECFE6FFE82EFCD717EC0EF000010001D4
:1006A8009D51040A9C119E119F11D8A41DD00001D0
:1006B8000001A805D8A418D0650E00010001A05DAE
:1006C800D8B012D0A0C09AF000018F6F010E0001BF
:1006D8000001966F00018F5100018F6F000E00011D
:1006E8000001996F00018F51000100019D51040A1A
:1006F800020ED8B49C199E119F11D8A427D00001CE
:100708000001A805D8A422D000010001A051D8B446
:100718000BD000010001A051020AD8B405D0000195
:100728000001A005D8A412D0A0C098F000018F6FD6
:10073800010E00010001996F00018F5100018F6FB8
:10074800000E00010001966F00018F5100010001A9
:100758009D51040A040ED8B49C199E119F11D8A467
:1007680030D000010001A851020AD8A42AD0000103
:100778000001A0A102D08C8001D08C900001000162
:10078800A0A302D08C8201D08C9200010001A0A508
:1007980002D08C8401D08C9400010001A0A702D063
:1007A8008C8601D08C9600010001A1A102D08C8812
:1007B80001D08C9800010001A1A302D08C8A01D03D
:1007C8008C9A010101018F67D4D40F0120B7D1D4CD
:1007D800C9EC0BF020EEAAF00E0EEECFDEFFE82EED
:1007E800FCD7AAC06BF0ABC06CF0ACC06DF0ADC06C
:1007F8006EF00001000E00010001706F0001AE0EE6
:10080800000100016F6FB6C071F0B7C072F0FFEC65
:1008180007F0AFD400018B6F100E00010001626F6A
:1008280000018B51090E98EC0FF0C80E00F0E82E6D
:10083800FDD7080EE4EC0EF000018B6F00018B5120
:1008480000010001B86F0001B96B0001B8C08BF05E
:100858000001B9C08CF000018B3B8C3BF00E8C176B
:100868008B510F0B8C13F00E8B178BC0B8F08CC00C
:10087800B9F0070EE4EC0EF000018B6F00018B3B22
:100888000F0E8B170F0E00018B1700018B51000103
:100898000001B827000E0001B923D890000100011B
:1008A800B83500010001B86F00010001B935000139
:1008B800B96F660E00010001706FB60E00010001ED
:1008C800716F400E00010001726FB8C068F0B9C0C6
:1008D80069F074EC0FF068C06DF069C06EF06AC022
:1008E8006FF013EC07F06DC07CF06EC07DF06FC048
:1008F8007EF0EBEC08F07CC08BF07DC08CF07EC005
:100908008DF07FC08EF08BC0B8F08CC0B9F00001BC
:100918008B6F110E00010001626F00018B51090EEF
:1009280098EC0FF0C80E00F0E82EFDD7080EE4ECA6
:100938000EF000018B6F00018B5100010001BA6FAE
:100948000001BB6B000120EEBAF0DECF8BF0DDCFEB
:100958008CF000018B3B8C3BF00E8C178B510F0BEE
:100968008C13F00E8B178BC0BAF08CC0BBF0070E3F
:10097800E4EC0EF000018B6F00018B3B0F0E8B1720
:100988000F0E00018B1700018B5100010001BA27DF
:10099800000E0001BB23D89000010001BA35000108
:1009A8000001BA6F00010001BB350001BB6F0001F7
:1009B8008B6F120E00010001626F00018B51090E4E
:1009C80098EC0FF0C80E00F0E82EFDD7080EE4EC06
:1009D8000EF000018B6F00018B5100010001BC6F0C
:1009E8000001BD6B000120EEBCF0DECF8BF0DDCF47
:1009F8008CF000018B3B8C3BF00E8C178B510F0B4E
:100A08008C13F00E8B178BC0BCF08CC0BDF0070E9A
:100A1800E4EC0EF000018B6F00018B3B0F0E8B177F
:100A28000F0E00018B1700018B5100010001BC273C
:100A3800000E0001BD23D89000010001BC35000163
:100A48000001BC6F00010001BD350001BD6F000150
:100A58008B6F130E00010001626F00018B51090EAC
:100A680098EC0FF0C80E00F0E82EFDD7080EE4EC65
:100A78000EF000018B6F00018B5100010001BE6F69
:100A88000001BF6B000120EEBEF0DECF8BF0DDCFA2
:100A98008CF000018B3B8C3BF00E8C178B510F0BAD
:100AA8008C13F00E8B178BC0BEF08CC0BFF0070EF6
:100AB800E4EC0EF000018B6F00018B3B0F0E8B17DF
:100AC8000F0E00018B1700018B5100010001BE279A
:100AD800000E0001BF23D89000010001BE350001BF
:100AE8000001BE6F00010001BF350001BF6F660E37
:100AF80000010001706F320E00010001716F410E9C
:100B080000010001726FBEC068F0BFC069F074ECEC
:100B18000FF068C06DF069C06EF06AC06FF013EC3A
:100B280007F06DC07CF06EC07DF06FC07EF0EBEC1E
:100B380008F07CC08BF07DC08CF07EC08DF07FC04B
:100B48008EF08BC0BEF08CC0BFF000018B6F140E0E
:100B580000010001626F00018B51090E98EC0FF043
:100B6800C80E00F0E82EFDD7080EE4EC0EF00001E8
:100B78008B6F00018B5100010001C06F0001C16B38
:100B8800000120EEC0F0DECF8BF0DDCF8CF000014D
:100B98008B3B8C3BF00E8C178B510F0B8C13F00E8C
:100BA8008B178BC0C0F08CC0C1F0070EE4EC0EF0C0
:100BB80000018B6F00018B3B0F0E8B170F0E00018E
:100BC8008B1700018B5100010001C027000E0001A6
:100BD800C123D89000010001C03500010001C06F99
:100BE80000010001C1350001C16F060EE4EC0EF0F2
:100BF80000018B6F8C6B00018B1D00010001C26F1F
:100C0800000100018C1DC36F000120EEC2F0DECF91
:100C18008BF0DDCF8CF00001D8908C338B33000142
:100C2800D8908C338B33030E00018B150001000123
:100C3800C26F000E00018C150001C36F1200000185
:100C4800000E000100016A6F0001620E0001000140
:100C5800696F0001000166674DD069C0D9FF6AC09D
:100C6800DAFFDF500001676F0001D8906733000199
:100C7800D89067330001D890673160C0D9FF61C050
:100C8800DAFFDF6E000120EE01F000016951D9267C
:100C980000016A51DA22DF500001676F050E00017A
:100CA800686F0001D89067370001682FFAD760C0D5
:100CB800D9FF61C0DAFF00016751DF1200010001AE
:100CC800604B612B69C0D9FF6AC0DAFFDF500001B1
:100CD800676F050E0001686F0001D8906737000143
:100CE800682FFAD70001675160C0D9FF61C0DAFFE9
:100CF800DF6E1200000120EE02F000016951D926D2
:100D080000016A51DA22DF500001676F050E000109
:100D1800686F0001D89067330001682FFAD7000187
:100D2800675160C0D9FF61C0DAFFDF6E000120EEB5
:100D380003F000016951D92600016A51DA22DF5017
:100D48000001676F0001D89067370001D8906737B6
:100D58000001D890673760C0D9FF61C0DAFF000191
:100D68006751DF1200010001604B612B000120EE8A
:100D780002F000016951D92600016A51DA22DF50D8
:100D88000001676F0001D89067370001D890673776
:100D98000001D8906735E00B60C0D9FF61C0DAFF69
:100DA800DF6E60C0D9FF61C0DAFF000EDB8600018C
:100DB80020EE02F000016951D92600016A51DA22B9
:100DC800DF500001676F030E0001671760C0D9FF8D
:100DD80061C0DAFF00016751DF1200010001604BBA
:100DE800612B000120EE01F000016951D9260001B4
:100DF8006A51DA2260C0E1FF61C0E2FFDFCFE7FF9E
:100E080000010001604B612B69C0D9FF6AC0DAFF9D
:100E180060C0E1FF61C0E2FFDFCFE7FF1200000121
:100E28006FC073F00001746B756B000100016E35C3
:100E38000001733701E3748100017351000100015F
:100E4800766F000176670DD0000E000100016D6F0E
:100E5800000E000100016E6F000E000100016F6FAF
:100E68001200000172C073F00001746B756B000111
:100E7800000171350001733701E37481000173517A
:100E8800000100017B6F00017B670DD0000E00019F
:100E980000016D6F000E000100016E6F000E000171
:100EA80000016F6F1200000100017B517B0F0001F0
:100EB800000176276FC07BF000010001725100012C
:100EC80000017B1B800E000100017B17000100015F
:100ED8006E8F00010001718FFF0E00010001701775
:100EE800FF0E000100017117000E000100017217CA
:100EF800000E00010001776F000E00010001786FFD
:100F0800000E00010001796F0001736F070E0001E8
:100F180000017A6F00017351000100016DA112D028
:100F28000001000170510001000177270001000154
:100F38007151000100017823000100017251000184
:100F4800000179230001D89000016F3300016E334E
:100F580000016D330001D89000017037000171372E
:100F680000017237000100017A2FD6D70001736F94
:100F7800090E000100017A6F0001735100010001A0
:100F88006DA112D000010001705100010001772706
:100F980000010001715100010001782300010001E6
:100FA80072510001000179230001D89000016F33CC
:100FB80000016E3300016D330001D89000017933D0
:100FC8000001783300017733000100017A2FD6D76A
:100FD80077C060F078C061F079C062F076C063F0E5
:100FE8007BC064F02CEC0BF060C06DF061C06EF05B
:100FF80062C06FF012000F010F0E00010001756F43
:101008000F01200E00010001746F0F010F0E000187
:101018000001776F0F01100E00010001766F0F01BC
:101028000F0E00010001796F0F01000E0001000191
:10103800786F0001736F000E000100018A6F0001D4
:101048007351010E000100018A6501D012000001F0
:1010580000018A51020D0001740EF324D96E0001BB
:10106800000EF420DA6E0001DECF8BF00001DDCF38
:101078008CF0000100018CC088F0000100018BC0D9
:1010880087F08BC0D9FF8CC0DAFFDF500001736F87
:10109800000173B793D08BC0D9FF8CC0DAFFFC0E68
:1010A800DF1672C073F0030E000173178BC0D9FFEF
:1010B8008CC0DAFF00017351DF120001000172AD2C
:1010C80008D0000100017151400900010001896F39
:1010D80002D071C089F0000120EE05F000018B51AB
:1010E800D92600018C51DA22000189C0DFFF0001F6
:1010F800000172AB04D00001736F010E03D0000130
:10110800736F000E00010001896F00017351010E19
:10111800000100018B2500010001606F000E000135
:1011280000018C210001616F6BC062F06CC063F03C
:101138006DC064F06EC065F089C066F023EC06F0FF
:10114800060E000100018B27000E00018C23000110
:10115800736F000E00010001866F0001735115D0F6
:101168006FC0D9FF70C0DAFF8BC0E1FF8CC0E2FF0F
:10117800DFCFE7FF000100016F4B702B000100017A
:101188008B4B8C2B00010001862B00010001715153
:1011980000010001865DD8A0E3D787C0D9FF88C0C9
:1011A800DAFFDF500001736F000173B5120087C0CA
:1011B800D9FF88C0DAFF000EDB86120000010001AB
:1011C8008A2B010E000100018A6541D71200000137
:1011D8007EC080F00001816B826B000100017D35CB
:1011E8000001803701E38181000180510001000185
:1011F8008A6F00018A670ED0000E000100017C6F23
:10120800000E00017D6F000E00017E6F000E0001D0
:101218007F6F1200170E0001806F00017CC081F003
:1012280000017DC082F000017EC083F000018029AA
:101238000001846F05D00001D89083338233813355
:101248000001842FF8D70001815100010001856F4A
:10125800000100017D8FFF0E000100017C17FF0EC9
:10126800000100017D17000E000100017E1700013A
:1012780000017C5100010001866F000100017D51D1
:101288000001876F00017E510001886F0001896BA2
:101298008E0E000100018A5F000100018AAF29D08B
:1012A800000100018A51800A0001806FF10E800A56
:1012B8000001805DD8B00ED0000E000100017C6FE7
:1012C800000E00017D6F000E00017E6F000E000110
:1012D8007F6F12000001D890000189330001883324
:1012E8000001873300018633000100018A3FF2D7ED
:1012F80024D0170E000100018A651BD0000E0001E2
:1013080000017C6F000E00017D6F000E00017E6FF2
:10131800000E00017F6F12000001D890000186378F
:101328000001873700018837000189370001000173
:101338008A07000100018A67EFD700010001855183
:10134800D8B410D000010001891F0001881F0001D6
:10135800871F0001866D000E000187230001882386
:101368000001892386C07CF087C07DF088C07EF0AC
:1013780089C07FF0120015C01AF014C019F0166663
:101388004AD012C0D9FF13C0DAFFDF50176ED890C9
:101398001736D8901736D890173419C0D9FF1AC005
:1013A800DAFFDF6E20EE01F01950D9261A50DA2242
:1013B80012C0E1FF13C0E2FFE750176E050E186E6A
:1013C800D8901732182EFCD71750DF6E124A132AFE
:1013D80012C0D9FF13C0DAFFDF50176E050E186E62
:1013E800D8901732182EFCD719C0D9FF1AC0DAFFC7
:1013F8001750DF1220EE02F01950D9261A50DA22BF
:10140800000EDF6E20EE03F01950D9261A50DA22AA
:10141800000EDF6E120020EE02F01950D9261A5085
:10142800DA2212C0E1FF13C0E2FFE750176E050E83
:10143800186ED8901736182EFCD71750DF6E20EE8E
:1014480003F01950D9261A50DA2212C0E1FF13C04E
:10145800E2FFE750176ED8901732D8901732D8901D
:101468001730DF6E124A132A12C0D9FF13C0DAFFF1
:10147800DF50176E030E171620EE02F01950D9260A
:101488001A50DA221750DF1212C0D9FF13C0DAFF40
:10149800DF50176ED8901732D8901732D89017327D
:1014A8001C0E171620EE02F01950D9261A50DA220F
:1014B8001750DF12124A132A12C0D9FF13C0DAFFDD
:1014C80010EE01F01950E1261A50E222DFCFE7FFB3
:1014D800124A132A12C0D9FF13C0DAFF19C0E1FF5C
:1014E8001AC0E2FFDFCFE7FF1200236E000E466E40
:1014F800235060AE13D0779071AE07D021C0D9FFCA
:1015080022C0DAFF000EDB86719E60A002D0468002
:1015180001D046900F0E286E600E21D00F0130AF1B
:101528001200779271AC07D021C0D9FF22C0DAFF30
:10153800000EDB86719C0F010F013051070B466EC0
:10154800020E465CD8B006D021C0D9FF22C0DAFF0F
:10155800000EDB8E0F010F0E286E0F01300E276E66
:1015680028C025F027C024F021C0D9FF22C0DAFF07
:10157800000EDF6E20EE05F02750D9262850DA221B
:10158800DF50296E29500F0B1FC0D9FF20C0DAFF8A
:10159800DF6E29AC06D021C0D9FF22C0DAFF000EC9
:1015A800DB8C20EE02F02750D9262850DA22DF50B3
:1015B800296E29A609D021C0D9FF22C0DAFF000E62
:1015C800DB8A236E010E02D0236E000E296E235093
:1015D800010E2724126E000E2820136E1CC015F071
:1015E8001BC014F029C016F0BFEC09F0060E272620
:1015F800000E28221FC0D9FF20C0DAFFDF50296E55
:10160800236E000E266E23500FD027C0D9FF28C0A6
:10161800DAFF1DC0E1FF1EC0E2FFDFCFE7FF274A68
:10162800282A1D4A1E2A262A2950265CD8A0EDD72A
:1016380077AE07D021C0D9FF22C0DAFF000EDB88C1
:10164800779E24C0D9FF25C0DAFF7F0EDF1612006F
:10165800000100016351D8B409D0000100016051B4
:101668000001611100016211D8A418D0000E000118
:101678000001606F000E00010001616F000E0001A3
:101688000001626F120000010001632B0001D89075
:10169800000162330001613300016033000E000174
:1016A800000160150001656F000E00010001611561
:1016B8000001666FFE0E0001000162150001676FF0
:1016C8000001655166116711D8B418D0DCD7000144
:1016D8000001632B010E000100016027000E0001CC
:1016E80000016123000E0001000162230001D8906F
:1016F800000162330001613300016033000E000114
:10170800000160150001656F000E00010001611500
:101718000001666FFF0E0001000162150001676F8E
:101728000001655166116711D8B40CD0D0D70001FB
:10173800000163070001D89000016037000161379C
:10174800000162370001000161AFF1D7000100011B
:1017580063B103D000010001619F0001D890633399
:101768000001000163510001000162130001000142
:101778006451D8B403D000010001628F60C060F0EA
:1017880061C061F062C062F01200010101018F675F
:1017980051D0F29E010101018C510E0D000E000185
:1017A8006E6F010E6F6FF35000016E27F450000149
:1017B8006F236EC0D9FF6FC0DAFF10EE70F00E0E07
:1017C800DECFE6FFE82EFCD700016E6F000E0101A8
:1017D80001018E6F00016E51010101018C2B010185
:1017E80001018C510A0AD8A408D000016E6F000EBE
:1017F800010101018C6F00016E51010101018C5141
:10180800010121EE8DF0DF6208D000016E6F010E3C
:10181800010101018F6F00016E51F28E20EE7DF003
:1018280000EE6DF00E0EDDCFEDFFE82EFCD7E92AB5
:10183800EA221200000E00010001706F000E000184
:10184800716F000E0001726F000E0001736F20EEC1
:101858007DF000EE6DF00E0EDDCFEDFFE82EFCD72B
:10186800E92AEA221200020102018F6751D0F29E92
:10187800020102018C510E0D000E00016E6F020E66
:101888006F6FF35000016E27F45000016F236EC094
:10189800D9FF6FC0DAFF10EE70F00E0EDECFE6FF54
:1018A800E82EFCD700016E6F000E020102018E6F58
:1018B80000016E51020102018C2B020102018C51C0
:1018C8000A0AD8A408D000016E6F000E02010201B6
:1018D8008C6F00016E51020102018C51020122EE4F
:1018E8008DF0DF6208D000016E6F010E0201020167
:1018F8008F6F00016E51F28E20EE7DF000EE6DF0DC
:101908000E0EDDCFEDFFE82EFCD7E92AEA22120001
:10191800000E00010001706F000E0001716F000ED3
:101928000001726F000E0001736F20EE7DF000EE73
:101938006DF00E0EDDCFEDFFE82EFCD7E92AEA2286
:101948001200800E14EC10F0010E0E010E01436F10
:10195800700E0E010E01446F000E0E010E01456F50
:10196800300E706E729E729C000E606E000E0F013B
:101978000F01306F000E0E010E01E06F000E0E0118
:101988000E01E16F000E0E010E01E46F000E0E0154
:101998000E01E56F000E0E010E01E86F000E0E013C
:1019A8000E01E96F000E0E010E01EC6F000E0E0124
:1019B8000E01ED6F000E0E010E01F06F000E0E010C
:1019C8000E01F16F000E0E010E01F46F000E0E01F4
:1019D8000E01F56F000E0E010E01F86F000E0E01DC
:1019E8000E01F96F0E010E01F997000E0E010E019E
:1019F800FC6F000E0E010E01FD6F0E010E01FD972A
:101A0800000E14EC10F01200FE0E0E010E01F86F1D
:101A1800000E0E010E01F96FFE0E0E010E01FC6F95
:101A2800000E0E010E01FD6F040E00010001636F30
:101A3800000E0001626F000162C060F0000163C027
:101A480061F00001D890613360330001D8906133B0
:101A580060330001D89061336033000160510E019A
:101A68000E01E06F000100016239E846E00B0E014B
:101A78000E01E16F000E0E010E01E46F000E0E0163
:101A88000E01E56F000E0E010E01E86F000E0E014B
:101A98000E01E96F000E0E010E01EC6F000E0E0133
:101AA8000E01ED6F000E0E010E01F06F000E0E011B
:101AB8000E01F16F000E0E010E01F46F000E0E0103
:101AC8000E01F56F1200E9CF2CF0EACF2DF0E1CF2F
:101AD8002EF0E2CF2FF0D9CF30F0DACF31F0F3CFBC
:101AE80032F0F4CF33F0F6CF34F0F7CF35F0F8CF4B
:101AF80036F0F5CF37F0000E77B0010E77B2010E51
:101B0800E8A01FD0000E1C6E380E1B6E000E1E6E55
:101B18003C0E1D6E000E206E440E1F6E000E226ECF
:101B2800450E216E79EC0AF020EE38F010EE12F036
:101B38000E0EDECFE6FFE82EFCD7A5EC0EF0779070
:101B4800779237C0F5FF36C0F8FF35C0F7FF34C0CD
:101B5800F6FF33C0F4FF32C0F3FF31C0DAFF30C004
:101B6800D9FF2FC0E2FF2EC0E1FF2DC0EAFF2CC035
:101B7800E9FF2BC0FBFF2AC0FAFF1100000E00018D
:101B88000001666F000E0001656F000100016351DE
:101B98006211D8B443D00001646F010E0001000146
:101BA800676F0001645109D0000100010001D8905D
:101BB8006237633700010001672B0001000163AF42
:101BC800F3D7000100010001D8906537663700019E
:101BD8000001625100010001605D000100016351D4
:101BE800000100016159D8A00FD000010001625125
:101BF80000010001605F0001000163510001000164
:101C0800615B000100016581000100010001D890BD
:101C18006333623300010001672FD3D765C060F0DA
:101C280066C061F01200010101018E671200F29E88
:101C380020EE60F0010101018D510E0D000E000132
:101C48006E6F010E6F6FF35000016E27F4500001A4
:101C58006F236EC0E1FF6FC0E2FF0E0EDECFE6FF1E
:101C6800E82EFCD700016E6F000E010101018F6F95
:101C780000016E51010101018D2B010101018D51FE
:101C88000A0AD8A408D000016E6F000E01010101F4
:101C98008D6F00016E51010101018C51010121EE8E
:101CA8008DF0DF6208D000016E6F010E01010101A5
:101CB8008E6F00016E51F28E1200C282C2B2FED740
:101CC8000001C4CF68F000010001696B0001000148
:101CD800685100010001696F0001686B0001000193
:101CE8006851C31000010001686F000100016951CB
:101CF8000001696F68C060F069C061F0000E000102
:101D08000001636F220E0001626FC2EC0DF000014A
:101D180060C068F0000161C069F0650E0001000153
:101D2800685D000E00016959D8A007D0000E0001B7
:101D38000001696F640E0001686F000100016851BD
:101D48001200020102018E67120020EE12F0020159
:101D580002018D510E0D000E206E020E216EF35001
:101D68002026F450212220C0E1FF21C0E2FF0E0E00
:101D7800DECFE6FFE82EFCD7206E000E020102013E
:101D88008F6F2050020102018D2B020102018D513B
:101D98000A0AD8A406D0206E000E020102018D6F37
:101DA8002050020102018C51020122EE8DF0DF6207
:101DB8001200206E010E020102018E6F20501200E7
:101DC800E8CF62F024EC10F04BEC10F06BEC10F064
:101DD8004BEC10F0000E3FEC10F04BEC10F0000153
:101DE800000162513FEC10F04BEC10F062EC10F087
:101DF8004BEC10F067EC10F024EC10F04BEC10F00A
:101E08006BEC10F04BEC10F0010E3FEC10F04BECCB
:101E180010F054EC10F000010001636F4BEC10F06F
:101E280062EC10F04BEC10F067EC10F000010001D0
:101E380063511200C294C296C298C29AC29CC280D0
:101E4800000EC16EC150CF0B2009C16EC08EC08676
:101E5800C088C08AC050F80B0609C06E010E0F0179
:101E68000F015D6F000E0F010F015C6F3F0E926E48
:101E7800F80E936E8A841A0E946E8B948B9C000EC7
:101E8800956E8C888C8A000E966E000E8D6E1200F0
:101E9800D08E200EF26EF80EF16E000EF06E000E6F
:101EA8009E6E000EA16E000EA46E000EB76E000EA0
:101EB800776E200E9D6E000EA06E200EA36E000E93
:101EC800B66E030E766E000E9F6E000EA26E000EAA
:101ED800A56E000EB86E030E786EF28EF28C1200AC
:101EE8000001000168C060F00001000169C061F0F4
:101EF80000010001626B00016B6F8E0E0001000192
:101F0800636F00016B5100016C6F000E000100014E
:101F1800646F00016C512CEC0BF060C068F061C07C
:101F280069F062C06AF01200E8CF63F024EC10F0A8
:101F38004BEC10F06BEC10F04BEC10F0000E3FEC9B
:101F480010F04BEC10F00001000163513FEC10F071
:101F58004BEC10F00001000162513FEC10F04BEC2B
:101F680010F062EC10F04BEC10F067EC10F012007F
:101F78000001606F010E010101018F6F00016051C6
:101F88000001606F000E010101018E6F00016051B8
:101F98000001606F000E010101018C6F00016051AA
:101FA8000001606F000E010101018D6F0001605199
:101FB80012000001606F010E020102018F6F000123
:101FC80060510001606F000E020102018E6F000176
:101FD80060510001606F000E020102018C6F000168
:101FE80060510001606F000E020102018D6F000157
:101FF8006051120002EE00F0900EEE6AE806FDE174
:1020080001EE00F0900EEE6AE806FDE100EEB8F091
:102018000D0EEE6AE806FDE1466A00015DEF00F08C
:10202800E8CF60F01F0E6F160001000160516F12BB
:102038006E50E00B000100016019D8B41200F8D707
:102048003F0EC716000EC66E000EC56EC686C78E3A
:1020580082868288C68A540EC86E1200D59CD59A8C
:10206800D596D550F80B0609D56EFB0ED76E1E0E09
:10207800D66ED58E1200E8CF61F061C0C9FFC6BE2A
:102088001200C7B0FED74BEC10F0C5501200C5CFF8
:1020980060F01F0E00016017D8B4C7B4F8D712005B
:1020A8004BEC10F0C586C7A0FED7C9501200D38EDE
:1020B800D398D39AD39CFC0ED3161200C58AC58830
:1020C800C5A81200FDD7C584C5A41200FDD7C580D8
:0620D800C5A01200FDD7B7
:020000040020DA
:08000000FFFFFFFFFFFFFFFF00
:020000040030CA
:0E00000014137E1FFF8991FF0FC00FE00F4009
:00000001FF
